:020000040000FA
:1020000069EF3FF0FFFFFFFF1000FFFFFFFFFFFF43
:10201000FFFFFFFFFFFFFFFF1000FFFFFFFFFFFFBE
:10202000FFFFFFFFFFFFFFFFFFFFFFFFFFFFFFFFC0
:10203000FFFFFFFFFFFFFFFFFFFFFFFFFFFFFFFFB0
:107E8000FFFFFFFFFFFFFFFFFFFFFFFFFFFFFFFF02
:107E9000FFFFFFFFFFFFFFFFFFFFFFFFFFFFFFFFF2
:107EA000FFFFFFFFFFFFFFFFFFFFFFFFFFFFFFFFE2
:107EB000FFFF110E006ECC0E016E720E026E022ECE
:107EC0005FEF3FF0012E5DEF3FF0002E5BEF3FF0E4
:107ED0001200700ED36E0F015B6B9268936A8A6A10
:107EE0000001036B80A472EF3FF00001032B03C07D
:107EF0008AFF59EC3FF080B479EF3FF072EF3FF02A
:020000040030CA
:0800000023280E3CFFD181FF13
:020000040020DA
:0800000005000B0400000000E4
:00000001FF
