:020000040000FA
:1020000068EF3FF0FFFFFFFF1000FFFFFFFFFFFF44
:10201000FFFFFFFFFFFFFFFF1000FFFFFFFFFFFFBE
:107EA000FFFFFFFFFFFFFFFFFFFFFFFFFFFFFFFFE2
:107EB000110E006ECC0E016E720E026E022E5EEF7F
:107EC0003FF0012E5CEF3FF0002E5AEF3FF0120022
:107ED0000F0E0F01C16E070EB46E9268936A8A6A24
:107EE0000001036B80A472EF3FF00001032B03C07D
:107EF0008AFF58EC3FF080B479EF3FF072EF3FF02B
:020000040030CA
:080000002C4E2A1EFF8181FF36
:020000040020DA
:08000000040E080C00000000D2
:00000001FF
